:020000041000EA
:10000000002008205B0100101B0100101D010010E2
:100010001101001011010010110100101101001058
:100020001901001019010010190100101F01001022
:10003000110100101901001021010010230100100E
:100040001101001011010010110100101101001028
:100050001101001011010010110100101101001018
:100060001101001011010010110100101101001008
:1000700011010010110100101101001011010010F8
:1000800011010010110100101101001011010010E8
:1000900011010010110100101101001011010010D8
:1000A00011010010110100101101001011010010C8
:1000B00011010010110100101101001011010010B8
:1000C00011010010110100101101001011010010A8
:1000D0001101001011010010110100101101001098
:1000E0001101001011010010110100101101001088
:1000F0001101001011010010110100101101001078
:100100001101001011010010110100101101001067
:10011000EFF30580103800BE00BE00BE00BE00BE7A
:1001200000BE00BEF2EB8871EC1400100C1500103C
:100130009C01001090A31AE7D3DEFFFF42012110BB
:10014000FF0100005C160000793512AB00201E494B
:10015000086006C881F3088810474FF050400068D7
:1001600008B10020F3E70DA40ECC002902D000F066
:1001700012F8F9E71549164A002000E001C1914242
:10018000FCD114498847144988471449884700BE60
:10019000FDE701C901C29A42FBD370470C1500105C
:1001A0001001002098030020941700100000082080
:1001B00000000820941700100010082000100820EC
:1001C000000000007047000008ED00E098030020E8
:1001D0009805002079100010E10100107110001046
:1001E00008B5192000F014F84FF00105192345EC6B
:1001F00044304FF00006192445EC4040FA2000F04E
:10020000E3FB46EC4040FA2000F0DEFBF3E700BFE2
:1002100030B44FF0000343EC440043EC40000525AC
:100220004FF480740B4BC20053F8201003EB800096
:1002300081F0400102F1804303F5203301F0C00258
:1002400000F5805100F540500A605D60046030BCEC
:10025000704700BF048003400FB400B583B0049C16
:10026000074801F02FF83CB105A92046019100F0A4
:10027000E3FE044801F026F8012000F0F5FE00BF7F
:10028000B81300107014001070B58646EFF3108597
:1002900072B6124CD4E8CF6F0120002EFAD1C4E818
:1002A000460F002EF6D1BFF35F8F4FF0010CC80848
:1002B00001F007030CFA03F31EF800C01CEA030662
:1002C00008D14CEA030C0EF800C0C4E88F6F85F328
:1002D000108870BD1046FFF7BFFF00BF2305002048
:1002E000044A1078431CDBB2182B28BF102313706C
:1002F000704700BF680300204FF0E022936843F08E
:1003000000539360704700BF0021044B03F12002AB
:10031000C3E88F1F01339342FAD1704718050020BC
:100320004FF0E0234FF08032C3F80024C3F80424D8
:10033000C3F80824C3F80C24C3F81024C3F8142409
:10034000C3F81824C3F81C24C3F82024C3F82424B9
:10035000C3F82824C3F82C24C3F8302462B67047AD
:10036000012300F01F029340400941B1800000F1D9
:10037000604000F56140C0F8803103607047024A78
:10038000203042F82030704700E100E010B5EFF374
:10039000108C72B6114BD3E8CF4F0122002CFAD14A
:1003A000C3E8442F002CF6D1BFF35F8F0C4A103006
:1003B00092680C4C52F82020A24201D091420BD1FD
:1003C000074A926842F82010BFF35F8F0022C3E80B
:1003D0008F2F8CF3108810BD00F018FD2105002030
:1003E00000ED00E011010010014B0B440360704769
:1003F0001805002070B5104C104DAC420ED2FF26EF
:10040000236863B1FFF76CFF01462046FFF7ECFF5E
:10041000A680BFF35F8F0834AC42F1D370BDFFF705
:100420005FFF01462046FFF7DFFF2671BFF35F8FB6
:100430000834AC42E4D370BD900300209803002040
:1004400010490B68EFF3108072B6D3E8CFCF0122CA
:10045000BCF1000FF9D1C3E84C2FBCF1000FF4D16F
:10046000BFF35F8F084A4FF0000C1378096801331F
:10047000DBB21370C1E88FCF80F3108840BF00203B
:100480000021704790050020940500200000000026
:100490002DE9F04F2DED028B85B0EFF30583DBB234
:1004A000103B9A0818BF01224FF0010103F0030B23
:1004B00018BFAF4DAF4B08BFAF4D0BEB820253F8E7
:1004C000226001FA0BF205F541539FEDA78B0192D3
:1004D0005A602FE0B3881C0440F19380B379002B5D
:1004E00040F0DD80B6F90820002AC0F21E81736951
:1004F00002EB420203EBC203D3E90247B7F1FF3F2D
:1005000008BFB4F1FF3F0ED005EB8B01AB6A0A695F
:10051000D21AE31A934205D301232A6A03FA0BF392
:10052000134200D10C61284600F04EFBA042B941B5
:10053000C0F2FB80B6F90830019A002B0093EA6301
:10054000C8DBD6F8148003EB4309284608EBC9073B
:10055000D7E9024A00F038FBA04271EB0A01B9DB8F
:10056000BAF1000FC0F2C380D7E90431834A934245
:1005700000F0ED807A88B6F9080092B242EA0040B5
:10058000984702460B4652EA030100F0B080002B68
:1005900080F2D180B4EB020E6AEB030A38F93930ED
:1005A000C7E902EA002B95DB716903EB430201EB1B
:1005B000C202D2E90270BE457AEB000C4FEA430258
:1005C00088DBB4462CF8083F06E003EB430001EB60
:1005D000C0005A00D0E90270BE451A447AEB000010
:1005E00001EBC20404DB31F93230A446002BECDA13
:1005F00028F83930009BACF80030B3881C043FF574
:100600006DAF3369EFF3108272B6D3E8CF0F0121DB
:100610000028FAD1C3E8401F0028F6D1BFF35F8F4E
:100620004FF6FF74B0880023316900B2B480C1E88E
:100630008F3F82F310889842FFF650AF0746A946D5
:10064000746906F1080807EB470E04EBCE03D3E903
:100650000250B6F90830C446002B13DBB2460097AF
:1006600004E034F936309446002B09DB03EB4306F3
:1006700004EBC602D2E90271BD4270EB0101F0DA6F
:100680005646009FACF8007034F93E7024F83E30B6
:10069000002FD8DAB3794D46002B3FF423AF002367
:1006A000B371B6F9083006F10808581C3DD01A4657
:1006B000776903E08046591C3FF416AF03EB430112
:1006C00007EBC100B0F802C01C461CF4004F9E4668
:1006D00037F93130EED0944280ED028B05D0A8F886
:1006E0000030328927F8312034817246E3E738F848
:1006F000393033813369EFF3108272B6D3E8CF0F0C
:1007000001210028FAD1C3E8401F0028F6D1BFF329
:100710005F8F7388316928F83930009B738000231C
:10072000C1E88F3F82F31088D4E640BF05B0BDEC2E
:10073000028BBDE8F08F2846CDE9022300F044FA91
:10074000029A039B10EB020E43EB010A26E70846D0
:100750000B69029198470028C9D00299D1E900237A
:1007600011E700BFAFF30080FFFFFFFFFFFFFFFFB8
:1007700000800B407005002000000B409104001029
:100780002DE9F84F364C25692DB1BDE8F84F0A2107
:100790003448FFF729BEDFF8E4800321404600F02B
:1007A00001FA0326C4F80C80FFF79AFD4FF0504C75
:1007B0002D4B267003442361DCF800300F21637059
:1007C000636961801D834FF00405A3F878504FF0F2
:1007D0000505A3F890504FF00605A3F8A8504FF078
:1007E00007050E214FF6FF7208274FF00A0EA3F8F7
:1007F000C0504FF001094FF00C0C4FF0020B4FF0BE
:10080000090A0D204FF00B05A3F868111749A280C3
:10081000A3F808E1A160A3F848B0A3F8F0A0A3F8FA
:100820002051A3F838C1A3F85001A3F83090A3F8E1
:100830006060A3F8D8701A800D4B3046C8F820705D
:100840000C49DC60FFF7A2FD49463046FFF788FD02
:10085000094B0A211F640348BDE8F84FFFF7C4BDE8
:10086000780300209005002018050020FFFF1000ED
:10087000700500209104001000200B4000000B4088
:100880000146F0B50069EFF3108772B6D0E8CF5F8C
:100890000124002DFAD1C0E8454F002DF6D1BFF359
:1008A0005F8FB1F902E04C690EEB4E0CBEF1000F08
:1008B0004FEACC05086904EBCC0C3CDB665B4E8050
:1008C0000026C0E88F6F87F31088BCF80200CCE9DF
:1008D00002230130C0F30E00012838BF0120059B20
:1008E000ACF80200CCF81030069B40EA0E40CCF881
:1008F00014300B69EFF3108272B6D3E8CFCF012723
:10090000BCF1000FF9D1C3E84C7FBCF1000FF4D16A
:10091000BFF35F8F8B886353A1F804E00B69C3E8D2
:100920008F6F82F310880122CB68097803F5015399
:100930008A405A60F0BD0023C0E88F3F87F31088DB
:100940004FF0FF30F0BD00BF03464089B0EB214FB0
:1009500037DD58690A1402EB420210B500EBC20001
:100960001C69EFF3108C72B6D4E8CFEF0122BEF110
:10097000000FF9D1C4E84E2FBEF1000FF4D1BFF340
:100980005F8F428889B292B28A4207D000221B69E7
:10099000C3E88F2F8CF31088002010BD42F4004272
:1009A00042800121002218699971C0E88F2F8CF3D1
:1009B00010881C78DA68084602F50153A140596096
:1009C00010BD0020704700BF2DE9F04383B00646FC
:1009D00000F002F94FF47A7304464FF0FF306FF0E5
:1009E0000042E6FB0341A04272EB01033ABF04461A
:1009F00015460D46A61F45F1FF37B44275EB0703B8
:100A00003CBF0026374600F0E7F8301A67EB0101DB
:100A1000012871F1000106DA2046294603B0BDE83D
:100A2000F04300F0E3B800F0D7F8864267EB01012D
:100A300000290ADB00211C4B324600931B483B4631
:100A40000191FFF71DFF0130E6D04FF0000E184A6C
:100A5000DFF864C01749536A9F4204D8906AB042D5
:100A6000DAD29F42D8D1DCF80030EFF3108872B6AA
:100A7000D3E8CF9F0120B9F1000FF9D1C3E8490FA6
:100A8000B9F1000FF4D1BFF35F8F0B78DCF80000F1
:100A9000DBB2C0E88FEF88F310880878834200D17A
:100AA00020BF20BFD7E700BF41040010780300201B
:100AB00000000B4094050020900500202DE9F04730
:100AC00005460C4682B0EFF30587FFB2002F38D100
:100AD000304ED6E900238B4208BF824239D0DFF87E
:100AE000C080D8F80CA098F80090504600F06CF840
:100AF00009F104095AF829301B1A281A64EB01017C
:100B0000984271F1000124DA00F066F8854264EB46
:100B1000010100292DDB204B404600932A46234645
:100B20000197FFF7ADFE011E23DD1C4BC6E9005403
:100B30005A6AA2422CD39B6AAB4227D31848FFF7CC
:100B400003FF164B5A6AA24208D2002002B0BDE849
:100B5000F08720BF114B5A6AA242F6D314BF01207E
:100B600000209B6AAB4228BF40F0010002B0BDE804
:100B7000F0870A4B586AA042E7D3001B18BF012038
:100B80009B6AAB4228BF40F00100EFE7A242D5D1FB
:100B900020BFD3E7700300204104001000000B4089
:100BA0007803002010B4054B054C064AA04214BF40
:100BB0001846581C5DF8044BFFF766BB380500204B
:100BC00000800B40C81300100346416A0A46986A29
:100BD000596A8A42FAD17047034B596A0A46986AA1
:100BE000596A9142FAD1704700000B40074A536A94
:100BF0009942FCD8994207D1044B02E05A6A9142CB
:100C000002D19A6A9042F9D8704700BF00000B40A9
:100C100000EB400C4FEA8C0C0CF1804C0CF5803C46
:100C2000F0B51646DCF80420051FB2F5803F38BF4A
:100C30004FF48032EDB238BFCCF80420012D2AD910
:100C40004FF40067254C0CF54052176054F82020F3
:100C5000B2B9DCF80020012D82EA461202F0E0026F
:100C60000CF5805632602AD94FF4006144F82030E8
:100C70004FF480330CF500521160CCF80430F0BD15
:100C80006769B7FBF2FE0EF1010E0EEB4E0EBEF1E0
:100C9000030EFCD2DDE70129D2D103240CF540522A
:100CA0001460DCF80820D207FBD5DCF800200B4CE0
:100CB00082EA461202F0E0020CF580563260012210
:100CC000DCF800504D4005F00305356002FA01F1F3
:100CD000DCF808200A42FBD0C6E700BF3C05002034
:100CE000014B53F8200070473C05002070B4039D71
:100CF00004682D0345EA03451B4B002CB3FBF1F3BD
:100D0000B2FBF3F61FDB194A194B904214BF4FF4A4
:100D100080424FF40042174C1A6003F580531A606A
:100D2000A36832EA0303FBD1212200F540530433C8
:100D3000016086601A600268002AFCDA0822C56039
:100D40001A6070BC7047036803F03F038B42DAD12E
:100D50008368C3F30B03B342D5D1C36803F4EE2316
:100D6000AB42D0D1EDE700BF001BB70000800540CB
:100D70000020024000000240012300EB4000800000
:100D800000F1804000F5841041600360704700BFAF
:100D90000023DB8A002242E800F2520201D4102133
:100DA00018470421184700BF034AD2F82838002BFF
:100DB000FBD0BFF35F8F704700000E400021044B53
:100DC000044ABFF35F8F43F8041B9342F9D1704785
:100DD0000C080E402C080E4010B44FF48D704FF4E8
:100DE0002A64064A064B07491460D06019605368AC
:100DF000002BFCDA5DF8044B704700BF0080044014
:100E000000A0044000B0FA00704700BF08B50148D8
:100E1000FFF722FAEC13001038B5054C054DAC4233
:100E200004D254F8043B9847AC42FAD338BD00BF13
:100E300078130010B813001010B40748074C084B83
:100E4000084A094904601A608B6832EA0303FBD13F
:100E50005DF8044B704700BF002002407F3BEFEF7E
:100E600000300240F6FFF30300000240044BDB6C4D
:100E7000B3F5004F03D14FF48022024BDA64704780
:100E800000001150002011504FF0E022044BD2F826
:100E9000881D0B43C2F8883D10EE3004704700BF38
:100EA000030330006FF06041044B054A19609368FA
:100EB000DB4333F06043FAD1704700BF003002409B
:100EC0000000024010B545F25320FFF761FFBDE876
:100ED000104003460420184710B545F25320FFF791
:100EE00057FFBDE81040034601201847FFF70CBA32
:100EF00038B51349134C144D641AA408442C2246E7
:100F000028BF44222846920000F02AFA432C14D825
:100F10000E4AC4F144000ED005EB8403410803EBF4
:100F2000C101C3E9002208338B42FAD1C30704D5BB
:100F300020F00100044445F82420054B9D6038BD95
:100F4000000000101001001000000020110100102E
:100F500000ED00E0002370B52B4C82B0C4F8843063
:100F6000FFF73AFF0122294BDA63636C012BFCD1B6
:100F70000321264A244B11639C6B012CFCD10226D1
:100F8000052521460523224A22480096FFF7AEFE9A
:100F900021462B46204A21480095FFF7A7FE002254
:100FA000042031461E4BFFF733FE2146284600221F
:100FB0001C4BFFF72DFE0022082011461A4BFFF7AD
:100FC00027FE002209201146174BFFF721FE0022C1
:100FD00006201146134BFFF71BFE0022114B072082
:100FE0001146FFF715FE0420FFF77AFE00240F4B91
:100FF000A3FB0035AD0CE0B229460134FFF7BCFE7F
:10100000062CF8D102B070BD000001400030014054
:10101000002F685900000540008C8647008005407D
:10102000001BB70080D1F008006CDC0283DE1B439C
:1010300000B9704700F004B910B5094B84B01C68C2
:101040004CB1034600914FF0FF3203A90548A04779
:10105000012004B010BD00F035F9204604B010BDE9
:101060006C0500203110001000BEFDE7704700BF86
:1010700008B5FFF7F9FF00BF38B5064C064DFFF77E
:10108000CBFEAC4204D254F8043B9847AC42FAD3AE
:1010900038BD00BFB8130010B8130010036808462D
:1010A000114618472DE9F0411546427D074688460E
:1010B000002A46D0002D1DDD0B780A2B23D0012DF0
:1010C0004FF0000C18D04646012416F8012F214697
:1010D0000A2A04F1010422D0A542F6D165450BDCB1
:1010E00008EB050313F8013CA3F10D03B3FA83F3F6
:1010F0005B093B75BDE8F0813B68A5EB0C0108EB93
:101100000C009847ECE7037D002BD8D1036802213F
:101110000F489847012DE3D04FF0010CD3E716F8A4
:10112000013C0D2BD8D08C4508EB0C00A1EB0C0139
:1011300001DA3B689847022105483B689847A44676
:10114000CAE7294640463B68BDE8F041184700BF62
:10115000E01400102DE9F04782B00D4691461C4680
:101160000646FFF739FD4FF0FF3C6FF000472E4A6F
:10117000821841F10003944577EB03013CBF6246BE
:101180003B462A4800F0F0F86B1C804640D00CB378
:10119000274F284B1C68B4B1B9F1000F1CD1DFF800
:1011A0009C9001E0246974B12368002BFAD0D9F82F
:1011B00000300BB19C42F5D120462A463146B84753
:1011C0002469002CF0D1B8F1000F26D1284602B0D6
:1011D000BDE8F087184FDCE74FF00A0ADFF85C90B3
:1011E00002E02469002CEED02368002BF9D0D9F856
:1011F00000300BB1A342F4D12A4631462046B8470D
:10120000012220460DF107018DF807A0B847E8E755
:10121000304600F075F80546B9E7044800F0A8F834
:10122000284602B0BDE8F08740420F00900300203E
:10123000A5100010640500209D1000106805002016
:10124000F0B583B006468DF80700FFF7C5FC4FF0F8
:10125000FF356FF00044174A821841F100039542B0
:1012600074EB03013CBF23462A46134800F07CF888
:10127000124B07461C689CB1114D01E024697CB1FA
:101280002368002BFAD02B680BB19C42F6D1204684
:1012900001220DF10701FFF705FF2469002CEFD1B2
:1012A00017B9304603B0F0BD034800F061F830468E
:1012B00003B0F0BD40420F00900300206405002001
:1012C0006805002038B5044600F01AF801230546E9
:1012D0001A4620462946FFF73DFF084B1C682CB1F3
:1012E00063682BB198472469002CF9D1284638BD92
:1012F0002469002CF4D1284638BD00BF64050020C5
:1013000020F0030110F00300C0F1000051F8043B8D
:1013100000F1040C4FEACC0C6FF000021CBF22FA63
:101320000CF213434FF0010C4CEA0C2C4CEA0C4C21
:10133000A3EB0C0222EA030212EACC1204BF51F81A
:10134000043B0430F4D0C2F1000102EA0102B2FA17
:1013500082F2C2F11F0200EBD200704700000000D1
:101360005FF800F0750200205FF800F0F501002042
:101370005FF800F02D020020C50E0010390E00109D
:101380006D0E0010550F0010A50E0010BD0D0010C1
:10139000ED0E0010A90D0010F5030010F10E001065
:1013A00081070010090E0010D90E0010890E0010E0
:0813B000F902001021030010F6
:1013B8000A2A2A2A2050414E4943202A2A2A0A006A
:1013C800486172647761726520616C61726D202575
:1013D8006420616C726561647920636C61696D6514
:1013E8006400000048617264206173736572740060
:1013F80052656C6561736500626F6F74325F773236
:10140800357130383000000068747470733A2F2FCB
:101418006769746875622E636F6D2F72617370628D
:101428006572727970692F7069636F2D6578616D67
:10143800706C65732F747265652F484541442F623F
:101448006C696E6B5F73696D706C6500322E332E3C
:10145800300000007069636F32000000626C696ED2
:101468006B5F73696D706C65000000004A756C20D5
:10147800323220323032360006005250D3F07542F4
:10148800F813001006005250E182887F0014001003
:10149800060052509A235618101400100600525095
:1014A800ABB360535414001006005250BBFF3CB657
:1014B8005C14001006005250861C030264140010CD
:1014C800060052505422A29D741400100500525078
:0C14D800DE65F468A81700100D0A000083
:0814E40090EDFF0F0100000074
:1014EC00801400108C14001098140010A414001018
:1014FC00B0140010BC140010C8140010D414001048
:10150C00034600B50268EFF3108C72B6D2E8CFEF49
:10151C000120BEF1000FF9D1C2E84E0FBEF1000F51
:10152C00F4D1BFF35F8F93F90420002A0ADB01B1D9
:10153C000A60002000221B68C3E88F2F8CF31088F0
:10154C005DF804FB4FF05042126801201A71F1E76C
:10155C004FF050412DE9F8430027044616461D462E
:10156C00DFF87C90D1F800802168EFF3108372B61D
:10157C00D1E8CF0F01220028FAD1C1E8402F002872
:10158C00F6D1BFF35F8F94F90410226800291CDB9D
:10159C0099F800C05FFA8CFCC2E88F7F83F3108847
:1015AC0099F80030634508D03046294600F0D0F851
:1015BC000028D9D00020BDE8F88320BF304629464A
:1015CC0000F0C6F80028CFD0F4E7002184F804809E
:1015DC00C2E88F1F83F310880120BDE8F88300BF99
:1015EC009405002070B582B001A9064615461C462C
:1015FC00FFF786FF38B94FF050439DF9042093F95B
:10160C0000309A4201D102B070BD2A4623463046C2
:10161C0002B0BDE87040FFF79BBF00BF0368EFF35B
:10162C00108172B6D3E8CFCF0122BCF1000FF9D1F3
:10163C00C3E84C2FBCF1000FF4D1BFF35F8F4FF018
:10164C00FF0C074A80F804C013780133DBB2137027
:10165C0000230268C2E88F3F81F3108840BF7047B7
:10166C0094050020844641EA000313F0030349D19A
:10167C00403A23D30B6803604B6843608B688360EC
:10168C00CB68C3600B6903614B6943618B698361F0
:10169C00CB69C3610B6A03624B6A43628B6A8362D8
:1016AC00CB6AC3620B6B03634B6B43638B6B8363C0
:1016BC00CB6BC36340304031403ADBD230320BD37A
:1016CC000B6803604B6843608B688360CB68C360B6
:1016DC0010301031103AF3D20C3205D351F8043BD0
:1016EC0040F8043B043AF9D2043208D0D2071CBFAC
:1016FC0011F8013B00F8013B01D30B8803806046D5
:10170C00704700BF082A13D38B07B1D010F0030326
:10171C00AED0C3F10403D21ADB071CBF11F8013B96
:10172C0000F8013BA4D331F8023B20F8023B9FE7C1
:10173C00043AD9D3013A11F8013B00F8013BF9D234
:10174C000B7803704B7843708B78837060467047CE
:10175C005FF800F0BD0A001010000000000000004F
:10176C00FFFFFFFFFFFFFF7F0000000000000000F5
:10177C0000000000000000000000000098030020A2
:08178C00000000000000000055
:10179400D3DEFFFFFE010000FF010000A4E9FFFF0C
:0417A400793512ABD6
:040000051000014D99
:00000001FF
